:020000009dc0a1
:0c002200009133000f73066030930895c6
:12002e001f932f9310e0d19210e0d19220e1d1922a9583
:10004000e9f72f911f9108953f934f935f933d934d
:10005000af93bf934d93341b61f0a30f5fb700fcc8
:10006000b395c09243954f70bf91af91c49210e089
:1000700001c01fef5f934f933f9308953f934f93ba
:100080005f93af93bf933d934d93341b61f0a30fe8
:100090005fb700fcb3950c9333953f70bf91af9160
:1000a000c39210e001c01fef5f934f933f932f93d4
:1000b000089561e071e081e091e0a3e0b4e6ba95d3
:1000c0000000e9f7aa95d1f79a95b9f78a95a1f7b3
:1000d0007a9589f76a9571f3089561e071e081e09e
:1000e00092e0afefbfefba950000e9f7aa95d1f71c
:1000f0009a95b9f78a95a1f77a9589f76a9571f378
:02010000089560
:1201020010bd09b90f9308e10ab90ee800bd0f9108951e
:10011400289bfecf0cb908950f931f93059110e00f
:10012400011b19f0c4dff4dff9cf1f910f9108957b
:08013400389bfecf0cb10895c9
:12013c0002e00ebf0fe50dbf0fef07bb05e508bb6adf8c
:10014e0010e00ce0d7df05e5009508bbf1e0eae62c
:0c015e00dedff1e0ece8dbdfb9dff6cf1c
:21016a0057454c434f4d4520544f205448452041544d4547413835313520524144494f0a0069
:2b018c002020202048656c70204d656e753a0a202020205b315d2073746172740a202020205b325d2073746f700a002b
:00000001FF